:020000040000FA
:100000000C945E000C9486000C9486000C94860080
:100010000C9486000C9486000C9486000C94860048
:100020000C9486000C9486000C9486000C94860038
:100030000C9486000C9486000C9486000C94860028
:100040000C9413080C9486000C94E1070C94BB07E5
:100050000C9486000C9486000C9486000C94860008
:100060000C9486000C9486000000000025002800F7
:100070002B0000000008000201000003040700003C
:1000800000000000000000000000240027002A00FB
:10009000010204081020408001020408102001021F
:1000A00004081020040404040404040402020202EC
:1000B00002020303030303038508EC0A11241FBE95
:1000C000CFEFD8E0DEBFCDBF23E0A6E0B2E001C0B5
:1000D0001D92AB33B207E1F712E0A0E0B1E0E8E037
:1000E000F0E202C005900D92A630B107D9F710E0FA
:1000F000CDE5D0E004C02197FE010E94F00DCC3583
:10010000D107C9F70E94F3080C94F70F0C94000074
:10011000AF92BF92CF92DF92EF92FF920F931F9315
:10012000CF93DF936C017B018B01040F151FEB0153
:100130005E01AE18BF08C017D10759F06991D6010A
:10014000ED91FC910190F081E02DC6010995892B7C
:1001500079F7C501DF91CF911F910F91FF90EF903B
:10016000DF90CF90BF90AF900895FC01538D448DE8
:10017000252F30E0842F90E0821B930B541710F052
:10018000CF96089501970895FC01918D828D98175F
:1001900061F0A28DAE0FBF2FB11D5D968C91928D37
:1001A0009F5F9F73928F90E008958FEF9FEF089568
:1001B000FC01918D828D981731F0828DE80FF11D31
:1001C000858D90E008958FEF9FEF0895FC01918D4C
:1001D000228D892F90E0805C9F4F821B91098F7345
:1001E000992708958AE292E00E94E60021E0892B97
:1001F00009F420E0822F0895FC01A48DA80FB92FE7
:10020000B11DA35ABF4F2C91848D90E001968F733E
:100210009927848FA689B7892C93A089B1898C915D
:10022000837080648C93938D848D981306C00288AC
:10023000F389E02D80818F7D80830895EF92FF9276
:100240000F931F93CF93DF93EC0181E0888F9B8DF9
:100250008C8D98131AC0E889F989808185FF15C0B3
:100260009FB7F894EE89FF896083E889F9898081D6
:100270008370806480839FBF81E090E0DF91CF91A5
:100280001F910F91FF90EF900895F62E0B8D10E0C7
:100290000F5F1F4F0F731127E02E8C8D8E110CC036
:1002A0000FB607FCFACFE889F989808185FFF5CF81
:1002B000CE010E94FC00F1CFEB8DEC0FFD2FF11D64
:1002C000E35AFF4FF0829FB7F8940B8FEA89FB89BE
:1002D00080818062CFCFCF93DF93EC01888D88231C
:1002E000B9F0AA89BB89E889F9898C9185FD03C099
:1002F000808186FD0DC00FB607FCF7CF8C9185FF7E
:10030000F2CF808185FFEDCFCE010E94FC00E9CFC6
:10031000DF91CF91089590E0FC01EE58FF4F2491BA
:10032000FC01E057FF4F3491FC01EC55FF4FE49185
:10033000EE23C9F0222339F0233001F1A8F4213053
:1003400019F1223029F1F0E0EE0FFF1FE859FF4FBD
:10035000A591B4918FB7F894EC91611126C03095B6
:100360003E233C938FBF08952730A9F02830C9F071
:10037000243049F7809180008F7D03C080918000F8
:100380008F7780938000DFCF84B58F7784BDDBCFFC
:1003900084B58F7DFBCF8091B0008F778093B000C4
:1003A000D2CF8091B0008F7DF9CF3E2BDACFCF93A3
:1003B000DF9390E0FC01E057FF4F24918C559F4F55
:1003C000FC0184918823D1F090E0880F991FFC01F3
:1003D000EA57FF4FA591B491FC01E859FF4FC59131
:1003E000D49161110EC09FB7F8948C91E22FE095E3
:1003F0008E238C932881E223E8839FBFDF91CF91E6
:1004000008958FB7F894EC91E22BEC938FBFF6CF61
:100410008230910538F0880F991F880F991F059732
:100420000197F1F708953FB7F89480910D029091EC
:100430000E02A0910F02B091100226B5A89B05C034
:100440002F3F19F00196A11DB11D3FBFBA2FA92F53
:10045000982F8827BC01CD01620F711D811D911D50
:1004600042E0660F771F881F991F4A95D1F70895BC
:100470008F929F92AF92BF92CF92DF92EF92FF92B4
:100480004B015C010E9413026B017C010E9413026C
:100490006C197D098E099F09683E7340810591059D
:1004A000A8F321E0821A9108A108B10888EEC80ECD
:1004B00083E0D81EE11CF11C81149104A104B10455
:1004C00029F7FF90EF90DF90CF90BF90AF909F9073
:1004D0008F9008958FB7F894809107028FBF089589
:1004E000AF92BF92CF92DF92EF92FF920F931F9342
:1004F000CF93DF93EC0188819981892B89F06EBDC0
:100500000DB407FEFDCFBEB48B2DDF91CF911F91AF
:100510000F91FF90EF90DF90CF90BF90AF90089534
:100520008885998511E0892B09F010E8AA24A39405
:10053000862F812309F0A12C062F2C813D814E812D
:100540005F8160E271EA87E090E00E94CE0DF22EBA
:10055000B02EE12CC22ED12CFF2019F0C6010E9432
:1005600008028A85877F09F042C08D858F3F89F018
:10057000902F912381E009F480E08A1551F0EF85F6
:10058000F8898F89992369F19081892B8083AA2426
:10059000A394E989FA898081998D892B8083FF2032
:1005A00019F0C6010E9408028E858F3F39F0EB8951
:1005B000FC898081988D892309F0E12AE989FA89EB
:1005C0009081898D8095892380838E858F3F09F066
:1005D000BE2C88859985892BB9F5110F1111BCCFD7
:1005E00093CF9081809589238083A12CD2CFE989F4
:1005F000FA898081998D892B8083FF2019F0C601AB
:100600000E9408028D858F3F49F0EF85F8898F8918
:10061000902F9123A9F09081892B8083E989FA8911
:100620009081898D8095892380838E858F3F69F2A3
:10063000EB89FC898081988D892339F2E12AC5CF25
:10064000908180958923E9CF1695C8CF8CBD9DBD3B
:1006500008951F93CF93DF93EC01162F8881998122
:10066000892B31F0EA81FB81808191810E942603F0
:1006700060E08B850E948B0160E8CE010E947002D1
:10068000612FCE010E94700261E08B85DF91CF91D6
:100690001F910C948B01CF92DF92EF92FF920F93F8
:1006A0001F93CF93DF93EC018B016A01790188815D
:1006B0009981892B31F0EA81FB81808191810E94AF
:1006C000260360E08B850E948B01F8016081CE01DA
:1006D0000E9470028601EC0CFD1CE016F10641F050
:1006E0006FEFCE010E947002F80181938F01F5CF68
:1006F00061E08B850E948B0181E0DF91CF911F919A
:100700000F91FF90EF90DF90CF900895CF93DF93FC
:1007100000D0CDB7DEB71A82198221E030E0AE01F9
:100720004E5F5F4FBE016F5F7F4F0E944B038A8118
:100730000F900F90DF91CF9108951F93CF93DF9388
:10074000EC01162F0E948603682F112339F0606890
:10075000CE01DF91CF911F910C9429036F77F8CFD1
:10076000CF93DF93EC010E948603837D682F626044
:10077000CE01DF91CF910C9429031F93CF93DF9388
:10078000EC0161E08B850E94D70161E08B850E94BE
:100790008B0188819981892B09F451C01FB7F89486
:1007A00080912902811127C0EEEAF0E08491EAE904
:1007B000F0E09491E82FF0E0EE0FFF1FEA57FF4FB3
:1007C000A591B491EC91E92321F461E08AE00E94C3
:1007D0008B0161E08AE00E94D7018CB580618CBDFD
:1007E0008CB580648CBD61E08DE00E94D70161E032
:1007F0008BE00E94D701809129028F5F80932902AC
:100800001FBF81E08B8FCE010E948603682F6F7E11
:10081000CE010E94290360E0CE010E949D03CE011B
:100820000E948603682F6F7BCE010E942903CE01B0
:100830000E94B00381E0DF91CF911F91089561E0A4
:100840008C850E94D7018A858B7F60E009F061E08A
:100850008C850E948B018D858F3F39F061E00E946D
:10086000D70161E08D850E948B018E858F3F49F213
:1008700060E00E94D701C5CFEF92FF920F931F93C4
:10088000CF93DF9300D01F92CDB7DEB78C010E94CB
:10089000B00361E0C8010E949D036AE070E080E05F
:1008A00090E00E943802C8010E948603682F6062AF
:1008B000C8010E94290361E470E080E090E00E949A
:1008C000380219821A8281E08B8322E030E0AE0187
:1008D0004F5F5F4FBE016D5F7F4FC8010E944B03AA
:1008E000E980FA80FE24EF24FE2460E0C8010E9423
:1008F0009D03C701969587950F900F900F90DF91FC
:10090000CF911F910F91FF90EF900895FC010190FE
:100910000020E9F73197AF01481B590BBC018AE26F
:1009200092E00C9488008F929F92AF92BF920F93A7
:100930001F93CF93DF93CDB7DEB7A1970FB6F8948F
:10094000DEBF0FBECDBF19A2423008F44AE08E01CF
:100950000F5D1F4F842E912CB12CA12CA501940169
:100960000E94CE0DE62FB901CA01EA30F4F4E05D31
:10097000D801EE938D01232B242B252B79F790E0C2
:1009800080E0109719F0CD010E948604A1960FB661
:10099000F894DEBF0FBECDBFDF91CF911F910F91B5
:1009A000BF90AF909F908F900895E95CE1CF4F92F8
:1009B0005F926F927F928F929F92AF92BF92CF92EF
:1009C000DF92EF92FF921F93CF93DF936B017C0135
:1009D000D42FAC019B010E94B40D8823D9F088E18B
:1009E00091E00E948604EC0184E291E00E9486047A
:1009F0008C0F9D1FDF91CF911F91FF90EF90DF90A3
:100A0000CF90BF90AF909F908F907F906F905F90AE
:100A10004F90089546015701E894B7F82FEF3FEF44
:100A20004FE75FE7C501B4010E94B40D81110DC00D
:100A30002FEF3FEF4FE75FE7C501B4010E94000BC6
:100A400018161CF48CE191E0CCCF2FEF3FEF4FE76D
:100A50005FE4C701B6010E94690D18161CF480E21C
:100A600091E0BFCF2FEF3FEF4FE75FECC701B6013B
:100A70000E94000B87FDF3CF20E030E0A901C70101
:100A8000B6010E94000BB12CA12C87FF0AC06DE2B9
:100A90008AE292E00E941E015C01F7FAF094F7F8F6
:100AA000F0941D2F60E070E080E09FE3C0E020E064
:100AB00030E040E251E40E94C80CCF5FCD17B8F39C
:100AC000A70196010E945C0C6B017C010E943A0D0B
:100AD0002B013C010E94050B9B01AC01C701B60133
:100AE0000E945B0C6B017C014AE0C301B2010E94D1
:100AF0009304EC016EE28AE292E00E941E01C80FAC
:100B0000D91FCA0DDB1D115008F46ECF20E030E074
:100B100040E251E4C701B6010E94660B4B015C0143
:100B20000E943A0D6B01F12CE12C4AE0C701B6019D
:100B30000E949304C80FD91FC701B6010E94050B7C
:100B40009B01AC01C501B4010E945B0C6B017C01EF
:100B5000DACF0C9486044F925F926F927F928F92BD
:100B60009F92AF92BF92CF92DF92EF92FF920E943C
:100B70003C04BC0190E080E00E94050B20E030E0E6
:100B800040E058E30E94660B20E030E047ED53E47C
:100B90000E94660B4B015C012FE63DE646EC52EBF2
:100BA0000E94660B26E133E843E957E30E945C0CA0
:100BB0000E94740D22E331E140E85BE30E945B0C8C
:100BC0002FE735E04BE955EB0E94C80C6B017C0127
:100BD00020E030E0A9010E94690D87FF70C020E08D
:100BE00030E048EC52E4C501B4010E94C80C20E09A
:100BF00030E048EC52E40E94660B6B017C012BE56F
:100C000032E44EE050E40E94660B2FE135E042E70B
:100C100053E40E945B0C2B013C01A7019601C70124
:100C2000B6010E94660B4B015C0124E338E749E200
:100C30005BE30E94660BA30192010E945C0C2B01F6
:100C40003C01A5019401C701B6010E94660B4B014E
:100C50005C0126E03FEE41EA56E30E94660B9B01F1
:100C6000AC01C301B2010E945B0C2B013C01A50148
:100C70009401C701B6010E94660B4B015C0123E1A0
:100C800037E142EF52E30E94660B9B01AC01C301C6
:100C9000B2010E945B0C2B013C01A5019401C7012C
:100CA000B6010E94660B2BE339E947E25FE20E943E
:100CB000660BA30192010E945C0C6B017C01C701D1
:100CC000B601FF90EF90DF90CF90BF90AF909F90D4
:100CD0008F907F906F905F904F900895FC0180817E
:100CE0009181009711F00C94920E0895FC0182817D
:100CF0009381009711F00C94920E08950F931F9317
:100D0000CF93DF93EC0188819981009759F02A8174
:100D10003B812617370730F081E0DF91CF911F919B
:100D20000F9108958B016F5F7F4F0E941B0F0097FB
:100D300059F0998388831B830A832C813D81232B5F
:100D400059F7FC011082E8CF80E0E7CFEF92FF92E5
:100D50000F931F93CF93DF93EC017B018A01BA01BC
:100D60000E947E0628813981811114C02115310528
:100D700019F0C9010E94920E198218821D821C82EC
:100D80001B821A82CE01DF91CF911F910F91FF90AC
:100D9000EF9008951D830C83B701C9010E94E10FF4
:100DA000F1CFEF92FF920F931F93CF93DF9300D079
:100DB00000D000D0CDB7DEB78AE292E00E94E60014
:100DC000892B09F4C3C08AE292E00E94C40089839F
:100DD0001A8200913303109134030F5F1F4FB80143
:100DE0008FE293E00E947E06882399F020912F03E2
:100DF000309130038091330390913403BE016F5FD3
:100E00007F4F820F931F0E94E10F109334030093D2
:100E100033032091350330913603C9010196909335
:100E200036038093350340912C0350912D03841792
:100E30009507BCF480913303909134032817390748
:100E400008F091C080912F0390913003009709F42E
:100E50008AC0820F931FFC0180819091290398130F
:100E600003C081E080932E0380912E03882309F430
:100E70006DC0409133035091340360912F03709102
:100E800030038AE292E00E94880087E291E00E94AB
:100E9000A9050091330310913403E0902A03F090E8
:100EA0002B03E114F104D1F01A8219821C821B82F7
:100EB0001E821D8260912F037091300361157105B0
:100EC00029F0A801CE0101960E94A606CE01019646
:100ED000F7010995CE0101960E946E0640913303F9
:100EE000509134034115510509F101151105F1F037
:100EF000B8014017510708F4BA0180912F0390916F
:100F00003003461B570B5093340340933303680F51
:100F1000791F0E94E80FE0912F03F0913003809138
:100F2000330390913403E80FF91F10828091350349
:100F300090913603801B910B909336038093350379
:100F400010922E038CE291E00E94A90526960FB61E
:100F5000F894DEBF0FBECDBFDF91CF911F910F91EF
:100F6000FF90EF90089580E078CF0E94F200811109
:100F70000C94D10608951F920F920FB60F92112470
:100F80002F933F934F935F936F937F938F939F9391
:100F9000AF93BF93EF93FF938AE292E00E94FC002D
:100FA000FF91EF91BF91AF919F918F917F916F9141
:100FB0005F914F913F912F910F900FBE0F901F9017
:100FC00018951F920F920FB60F9211242F938F93A3
:100FD0009F93EF93FF93E0913A02F0913B0280815F
:100FE000E0914002F091410282FD1BC0908180910E
:100FF00043028F5F8F7320914402821741F0E0918A
:101000004302F0E0E65DFD4F958F80934302FF9130
:10101000EF919F918F912F910F900FBE0F901F9086
:1010200018958081F4CF1F920F920FB60F92112462
:101030002F933F938F939F93AF93BF938091090218
:1010400090910A02A0910B02B0910C02309108021B
:1010500023E0230F2D3758F50196A11DB11D2093D4
:1010600008028093090290930A02A0930B02B093A6
:101070000C0280910D0290910E02A0910F02B0918E
:1010800010020196A11DB11D80930D0290930E02D6
:10109000A0930F02B0931002BF91AF919F918F91D7
:1010A0003F912F910F900FBE0F901F90189526E83B
:1010B000230F0296A11DB11DD2CFCF93DF93EC0178
:1010C0006B878FEF8E878D878C8786E092E0998380
:1010D00088831B8E82E090E00E94F60D25E5FC01DE
:1010E000208311829B838A8380E492E4AFE0B0E0A6
:1010F0008C839D83AE83BF8381E090E0998788874E
:1011000084E08A87DF91CF9108951F93CF93DF9377
:10111000EAE2F2E01382128288EE93E0A0E0B0E00F
:1011200084839583A683B7838AE091E0918380834B
:1011300085EC90E09587848784EC90E0978786879C
:1011400080EC90E0918B808B81EC90E0938B828B94
:1011500082EC90E0958B848B86EC90E0978B868B6D
:10116000118E128E138E148EC9E2D3E01BE3188306
:101170001F821E82198618861B861A8650E040E060
:1011800066E271E08FE293E00E94A6061D861C864F
:101190006AE087EC92E00E945D0869E083EE92E0ED
:1011A0000E945D0868E08FEF92E00E945D08CBE14D
:1011B000D3E08EE0FE0111928A95E9F718831F8231
:1011C0001E82198618861B861A8650E040E066E269
:1011D00071E081E293E00E94A6061D861C86DF91E5
:1011E000CF911F910895789484B5826084BD84B5B1
:1011F000816084BD85B5826085BD85B5816085BD12
:1012000080916E00816080936E00109281008091C9
:101210008100826080938100809181008160809351
:101220008100809180008160809380008091B10076
:1012300084608093B1008091B00081608093B000A1
:1012400080917A00846080937A0080917A00826035
:1012500080937A0080917A00816080937A008091F7
:101260007A00806880937A001092C100E0913A027F
:10127000F0913B0282E08083E0913602F0913702E8
:101280001082E0913802F09139028FEC8083109245
:101290004202E0913E02F0913F0286E08083E091BD
:1012A0003C02F0913D02808180618083E0913C02AC
:1012B000F0913D02808188608083E0913C02F09152
:1012C0003D02808180688083E0913C02F0913D0284
:1012D00080818F7D808387EC92E00E94BD0383EE46
:1012E00092E00E94BD038FEF92E00E94BD0387EC65
:1012F00092E00E943C04BC0190E080E00E94050B5B
:10130000609325027093260280932702909328020F
:1013100081E391E00E94A905609125027091260267
:10132000809127029091280242E050E00E94D70469
:1013300020E030E040E058E3609125027091260201
:1013400080912702909128020E94660B60932102EF
:101350007093220280932302909324028FE391E002
:101360000E94A905609121027091220280912302BE
:101370009091240248E050E00E94D7048DE491E06F
:101380000E94A90520E030E047ED53E4609121027E
:101390007091220280912302909124020E94660B98
:1013A00043E050E00E94D70480E691E00E94A90546
:1013B00086E691E00E94A90587EC92E00E94AB05C9
:1013C00042E050E00E94D7048AE791E00E94A9051C
:1013D00064EF71E080E090E00E94380283EE92E0DA
:1013E0000E943C04BC0190E080E00E94050B6093E9
:1013F0001D0270931E0280931F02909320028FE7BC
:1014000091E00E94A90560911D0270911E028091D9
:101410001F029091200242E050E00E94D70420E099
:1014200030E040E058E360911D0270911E0280910F
:101430001F02909120020E94660B60931902709324
:101440001A0280931B0290931C028DE891E00E9487
:10145000A9056091190270911A0280911B02909166
:101460001C0248E050E00E94D7048BE991E00E9402
:10147000A90520E030E047ED53E460911902709136
:101480001A0280911B0290911C020E94660B48E098
:1014900050E00E94D70480E691E00E94A9058FEAFF
:1014A00091E00E94A90583EE92E00E94AB0542E024
:1014B00050E00E94D7048AE791E00E94A90564EFFA
:1014C00071E080E090E00E9438028FEF92E00E948D
:1014D0003C04BC0190E080E00E94050B6093150283
:1014E00070931602809317029093180283EC91E098
:1014F0000E94A90560911502709116028091170251
:101500009091180242E050E00E94D70420E030E0C1
:1015100040E058E360911502709116028091170225
:10152000909118020E94660B609311027093120250
:10153000809313029093140281ED91E00E94A9051B
:101540006091110270911202809113029091140225
:1015500048E050E00E94D7048EED91E00E94A9057A
:1015600020E030E047ED53E46091110270911202E7
:1015700080911302909114020E94660B48E050E0A3
:101580000E94D70480E691E00E94860484E291E004
:101590000E94860481EF91E00E94A9058FEF92E0FE
:1015A0000E94AB0542E050E00E94D7048AE791E038
:1015B0000E94860484E291E00E94860464EF71E058
:1015C00080E090E00E9438020E94F200882309F433
:1015D0008ECE0E94D1068BCE81E293E00E946E06F1
:1015E0008FEF92E00E94760683EE92E00E947606EC
:1015F00087EC92E00E9476068FE293E00C946E06F0
:101600000E94420B08F481E00895E89409C097FB1A
:101610003EF490958095709561957F4F8F4F9F4FC9
:101620009923A9F0F92F96E9BB279395F69587950D
:1016300077956795B795F111F8CFFAF4BB0F11F4D0
:1016400060FF1BC06F5F7F4F8F4F9F4F16C0882377
:1016500011F096E911C0772321F09EE8872F762FAD
:1016600005C0662371F096E8862F70E060E02AF0EE
:101670009A95660F771F881FDAF7880F96958795DA
:1016800097F90895990F0008550FAA0BE0E8FEEFAF
:1016900016161706E807F907C0F012161306E40736
:1016A000F50798F0621B730B840B950B39F40A262F
:1016B00061F0232B242B252B21F408950A2609F40D
:1016C000A140A6958FEF811D811D08950E94790B81
:1016D0000C94EA0B0E94DC0B38F00E94E30B20F024
:1016E000952311F00C94D30B0C94D90B11240C946A
:1016F0001E0C0E94FB0B70F3959FC1F3950F50E0F9
:10170000551F629FF001729FBB27F00DB11D639FB3
:10171000AA27F00DB11DAA1F649F6627B00DA11D59
:10172000661F829F2227B00DA11D621F739FB00DFF
:10173000A11D621F839FA00D611D221F749F33276F
:10174000A00D611D231F849F600D211D822F762F08
:101750006A2F11249F5750409AF0F1F088234AF0E5
:10176000EE0FFF1FBB1F661F771F881F9150504051
:10177000A9F79E3F510580F00C94D30B0C941E0CDE
:101780005F3FE4F3983ED4F3869577956795B795D8
:10179000F795E7959F5FC1F7FE2B880F911D9695F2
:1017A000879597F9089597F99F6780E870E060E062
:1017B00008959FEF80EC089500240A9416161706EA
:1017C00018060906089500240A9412161306140632
:1017D00005060895092E0394000C11F4882352F095
:1017E000BB0F40F4BF2B11F460FF04C06F5F7F4F4D
:1017F0008F4F9F4F089557FD9058440F551F59F034
:101800005F3F71F04795880F97FB991F61F09F3FED
:1018100079F087950895121613061406551FF2CF16
:101820004695F1DF08C0161617061806991FF1CF66
:1018300086957105610508940895E894BB2766278D
:101840007727CB0197F908952F923F924F925F929D
:101850006F927F928F929F92AF92BF92CF92DF92C0
:10186000EF92FF920F931F93CF93DF93CDB7DEB725
:10187000CA1BDB0B0FB6F894DEBF0FBECDBF0994B9
:101880002A88398848885F846E847D848C849B8410
:10189000AA84B984C884DF80EE80FD800C811B811E
:1018A000AA81B981CE0FD11D0FB6F894DEBF0FBE4D
:1018B000CDBFED0108955058BB27AA270E94730C95
:1018C0000C94EA0B0E94DC0B38F00E94E30B20F032
:1018D00039F49F3F19F426F40C94D90B0EF4E095DB
:1018E000E7FB0C94D30BE92F0E94FB0B58F3BA17BC
:1018F000620773078407950720F079F4A6F50C9426
:101900001D0C0EF4E0950B2EBA2FA02D0B01B90182
:1019100090010C01CA01A0011124FF27591B99F065
:10192000593F50F4503E68F11A16F040A22F232F71
:10193000342F4427585FF3CF469537952795A795C1
:10194000F0405395C9F77EF41F16BA0B620B730B68
:10195000840BBAF09150A1F0FF0FBB1F661F771FD9
:10196000881FC2F70EC0BA0F621F731F841F48F48E
:10197000879577956795B795F7959E3F08F0B0CF17
:101980009395880F08F09927EE0F979587950895FE
:101990000E94DC0C0C94EA0B0E94E30B58F00E94AE
:1019A000DC0B40F029F45F3F29F00C94D30B51116C
:1019B0000C941E0C0C94D90B0E94FB0B68F399231A
:1019C000B1F3552391F3951B550BBB27AA2762173B
:1019D0007307840738F09F5F5F4F220F331F441F48
:1019E000AA1FA9F335D00E2E3AF0E0E832D091507C
:1019F0005040E695001CCAF72BD0FE2F29D0660F69
:101A0000771F881FBB1F261737074807AB07B0E8AB
:101A100009F0BB0B802DBF01FF2793585F4F3AF0B1
:101A20009E3F510578F00C94D30B0C941E0C5F3F35
:101A3000E4F3983ED4F3869577956795B795F79537
:101A40009F5FC9F7880F911D9695879597F908951F
:101A5000E1E0660F771F881FBB1F621773078407BB
:101A6000BA0720F0621B730B840BBA0BEE1F88F7CA
:101A7000E09508950E94030C88F09F5798F0B92FC5
:101A80009927B751B0F0E1F0660F771F881F991FB3
:101A90001AF0BA95C9F714C0B13091F00E941D0C2C
:101AA000B1E008950C941D0C672F782F8827B85F3C
:101AB00039F0B93FCCF3869577956795B395D9F70B
:101AC0003EF490958095709561957F4F8F4F9F4F15
:101AD00008950E94420B08F48FEF089519F416F44C
:101AE0000C94D90B0C94B90D0E94030CB8F39923F4
:101AF000C9F3B6F39F57550B87FF0E94C70D00240B
:101B0000A0E640EA900180585695979528F4805CAD
:101B1000660F771F881F20F026173707480730F415
:101B2000621B730B840B202931294A2BA69517942D
:101B30000794202531254A2758F7660F771F881FFD
:101B400020F026173707480730F4620B730B840B1D
:101B5000200D311D411DA09581F7B901842F9158A9
:101B6000880F9695879508950E94420B880B990BD4
:101B700008959F3F31F0915020F4879577956795B0
:101B8000B795880F911D9695879597F9089591506F
:101B90005040660F771F881FD2F70895A1E21A2ED2
:101BA000AA1BBB1BFD010DC0AA1FBB1FEE1FFF1F01
:101BB000A217B307E407F50720F0A21BB30BE40B51
:101BC000F50B661F771F881F991F1A9469F7609598
:101BD0007095809590959B01AC01BD01CF01089552
:101BE000EE0FFF1F0590F491E02D09940F931F93C2
:101BF000CF93DF938230910510F482E090E0E09182
:101C00003903F0913A0330E020E0B0E0A0E03097F3
:101C100099F42115310509F44AC0281B390B2430E9
:101C20003105D8F58A819B816115710589F1FB0128
:101C300093838283FE0111C040815181028113810F
:101C400048175907E0F04817590799F4109761F0C1
:101C500012960C93129713961C933296CF01DF9134
:101C6000CF911F910F9108950093390310933A0378
:101C7000F4CF2115310551F04217530738F0A9016F
:101C8000DB019A01BD01DF01F801C1CFEF01F9CFFE
:101C900090933A0380933903CDCFFE01E20FF31FF7
:101CA000819391932250310939832883D7CF209192
:101CB000370330913803232B41F4209102013091F6
:101CC00003013093380320933703209100013091B2
:101CD00001012115310541F42DB73EB740910401B2
:101CE00050910501241B350BE0913703F091380327
:101CF000E217F307A0F42E1B3F0B2817390778F0E3
:101D0000AC014E5F5F4F2417350748F04E0F5F1F41
:101D10005093380340933703819391939FCFF0E022
:101D2000E0E09CCFCF93DF930097E9F0FC0132977E
:101D300013821282A0913903B0913A03ED0130E091
:101D400020E01097A1F420813181820F931F209110
:101D50003703309138032817390709F061C0F09331
:101D60003803E0933703DF91CF910895EA01CE174E
:101D7000DF07E8F54A815B819E0141155105B1F706
:101D8000E901FB83EA8349915991C40FD51FEC17F0
:101D9000FD0761F4808191810296840F951FE9010E
:101DA00099838883828193819B838A83F0E0E0E03A
:101DB00012968D919C9113970097B9F52D913C91B6
:101DC0001197CD010296820F931F20913703309116
:101DD00038032817390739F6309751F510923A032E
:101DE00010923903B0933803A0933703BCCFD38349
:101DF000C28340815181840F951FC817D90761F4B0
:101E00004E5F5F4F88819981480F591F51834083EE
:101E10008A819B81938382832115310509F0B0CF9C
:101E2000F0933A03E09339039ECFFD01DC01C0CF6C
:101E300013821282D7CFB0E0A0E0E1E2FFE00C9481
:101E4000260C8C01009751F4CB010E94F60D8C01F9
:101E5000C801CDB7DEB7E0E10C94420CFC01E60FFF
:101E6000F71F9C0122503109E217F30708F49DC0C7
:101E7000D901CD91DC911197C617D70798F0C530DD
:101E8000D10530F3CE0104978617970708F3C61BD8
:101E9000D70B2297C193D1936D937C93CF010E946E
:101EA000920ED6CF5B01AC1ABD0A4C018C0E9D1E62
:101EB000A0913903B0913A03512C412CF12CE12C23
:101EC000109731F580913703909138038815990563
:101ED00009F05CC04616570608F058C08091000112
:101EE00090910101009741F48DB79EB74091040194
:101EF00050910501841B950BE817F90708F055C0B0
:101F0000F0933803E0933703F90171836083A0CF26
:101F10008D919C91119712966C90129713967C90CC
:101F20001397A815B90559F56C0142E0C40ED11CF0
:101F3000CA14DB0420F1AC014A195B09DA011296DC
:101F4000159780F06282738251834083D9016D932B
:101F50007C93E114F10471F0D7011396FC93EE9396
:101F6000129776CF22968C0F9D1FF9019183808363
:101F7000F301EFCFF0933A03E093390369CF4816AA
:101F8000590608F42C017D01D3019ACFCB010E94A0
:101F9000F60D7C01009749F0AE01B8010E94D80F00
:101FA000C8010E94920E870153CF10E000E050CF8D
:101FB000FB01DC0102C001900D9241505040D8F766
:101FC0000895FB01DC0101900D920020E1F70895D6
:101FD000FB01DC014150504048F001900D9200207F
:101FE000C9F701C01D9241505040E0F7089510E03C
:101FF000CDE5D0E004C0FE010E94F00D2196CE3563
:10200000D107C9F7F894FFCF00003B038000000020
:1020100000001E018800B5006B01E600C400D80076
:102020006E616E00696E66006F7666000D0A000ACA
:10203000242F3E000A2E2F3E005254442031207699
:10204000616C75653A2000526174696F2052545F6B
:1020500031203D2000526573697374616E636520A1
:1020600052545F31203D2000204F686D730054654D
:102070006D70657261747572652052545F31203DD8
:102080002000C2B0430D0052544420322076616CCF
:1020900075653A2000526174696F2052545F322096
:1020A0003D2000526573697374616E636520205230
:1020B000545F32203D200054656D70657261747507
:1020C00072652052545F32203D2000525444203328
:1020D0002076616C75653A2000526174696F2052F8
:1020E000545F333D2000526573697374616E63659C
:1020F0002052545F33203D200054656D706572613D
:0E210000747572652052545F33203D2000003C
:107E0000112484B714BE81FFF0D085E080938100F7
:107E100082E08093C00088E18093C10086E0809377
:107E2000C20080E18093C4008EE0C9D0259A86E02C
:107E300020E33CEF91E0309385002093840096BBD3
:107E4000B09BFECF1D9AA8958150A9F7CC24DD24C4
:107E500088248394B5E0AB2EA1E19A2EF3E0BF2EE7
:107E6000A2D0813461F49FD0082FAFD0023811F036
:107E7000013811F484E001C083E08DD089C08234E0
:107E800011F484E103C0853419F485E0A6D080C0E4
:107E9000853579F488D0E82EFF2485D0082F10E0AE
:107EA000102F00270E291F29000F111F8ED06801E7
:107EB0006FC0863521F484E090D080E0DECF843638
:107EC00009F040C070D06FD0082F6DD080E0C81688
:107ED00080E7D80618F4F601B7BEE895C0E0D1E017
:107EE00062D089930C17E1F7F0E0CF16F0E7DF06D8
:107EF00018F0F601B7BEE89568D007B600FCFDCFD4
:107F0000A601A0E0B1E02C9130E011968C91119780
:107F100090E0982F8827822B932B1296FA010C0160
:107F200087BEE89511244E5F5F4FF1E0A038BF0790
:107F300051F7F601A7BEE89507B600FCFDCF97BE46
:107F4000E89526C08437B1F42ED02DD0F82E2BD052
:107F50003CD0F601EF2C8F010F5F1F4F84911BD097
:107F6000EA94F801C1F70894C11CD11CFA94CF0C13
:107F7000D11C0EC0853739F428D08EE10CD085E9AC
:107F80000AD08FE07ACF813511F488E018D01DD067
:107F900080E101D065CF982F8091C00085FFFCCF94
:107FA0009093C60008958091C00087FFFCCF809118
:107FB000C00084FD01C0A8958091C6000895E0E648
:107FC000F0E098E1908380830895EDDF803219F02E
:107FD00088E0F5DFFFCF84E1DECF1F93182FE3DFCA
:107FE0001150E9F7F2DF1F91089580E0E8DFEE27F6
:047FF000FF270994CA
:027FFE00040479
:00000001FF
